:0400000014EF00F009
:10000800FACFE1F8FBCFE2F8E9CFE3F809EF16F011
:10001800D8CFC8F8E8CFC9F8E0CFCAF8B7EF15F0DD
:1000280006EEF7F0000EF66E000EF76E010EF86E93
:1000380010EE3FF036EC00F0F86A00EE00F016EE35
:10004800F7F02FEC00F00EEE7EF010EE02F02FEC41
:1000580000F0A3EF03F0EE6AE550E150FCE1E25056
:10006800FAE112000900F5CFEEFFE550E150FAE1A0
:10007800E250F8E112004CC8E9FF4DC8EAFFEECFA4
:1000880050F8EECF51F8EECF52F8EECF53F8010109
:100098000101DC510801531911E101010101DB5192
:1000A800080152190BE101010101DA510801511946
:1000B80005E101010101D95108015019D8B467EFD0
:1000C80000F069EF00F0DBEF00F001010101DC5105
:1000D80000010001771914E101010101DB51000160
:1000E800000176190DE101010101DA510001000159
:1000F800751906E101010101D951000100017419C6
:10010800D8A489EF00F08BEF00F0ECEF00F04CC8BA
:10011800E9FF4DC8EAFFEECF50F8EECF51F8EECF29
:1001280052F8EECF53F8000100016C510801501944
:100138000801546F000100016D51080151190801AF
:10014800556F000100016E51080152190801566FE0
:10015800000100016F51080153190801576F000190
:1001680000017051080154150801586F0001000181
:100178007151080155150801596F000100017251AC
:100188000801561508015A6F000100017351080152
:10019800571508015B6F08015B51581159115A1125
:1001A800D8B4D9EF00F0DBEF00F0ECEF00F001EE8F
:1001B800DDF008014EC8E1FF08014FC8E2FF060E56
:1001C800EECFE6FFE82EE4EF00F0010EEFEF00F0CF
:1001D800000EEFEF00F012004CC850F84DC851F86F
:1001E80050C8E9FF51C8EAFFEF50080108014F6FF6
:1001F80008010801504B512B080108014F51D8B490
:1002080008EF01F00AEF01F036EF01F008010801EC
:100218004F512E0AD8B413EF01F015EF01F036EF65
:1002280001F0080108014F512F0AD8B41EEF01F060
:1002380020EF01F036EF01F0080108014F512C0AB8
:10024800D8B429EF01F02BEF01F036EF01F00801E7
:1002580008014F513E0AD8A434EF01F036EF01F0FF
:10026800F4EF00F0080108014C5108010801505D45
:100278000801526F08015205080108014E6F4EC867
:1002880053F890EC1DF0080108014EC855F8080114
:100298000801566B4CC853F84DC854F8F8EC12F0E6
:1002A800010E080108015327000E08015423080114
:1002B80008015351080108014C270801080154514D
:1002C800080108014D23080108014F51D8B46FEF08
:1002D80001F071EF01F092EF01F0080108014F51B0
:1002E8002F0AD8B47AEF01F07CEF01F092EF01F019
:1002F800080108014F512C0AD8B485EF01F087EFA7
:1003080001F092EF01F0080108014F513E0AD8A40C
:1003180090EF01F092EF01F094EF01F096EF01F009
:10032800F4EF00F00801526F000E08010801536F46
:100338000801525190EC1DF01200A3EF01F0D7EC28
:100348001EF00009D8B4ABEF01F0ADEF01F0A3EF58
:1003580001F0CF0E08010801AC6F0A0E0801AD6F5D
:1003680030EC23F078C8E9FF79C8EAFF010EEE6E99
:10037800000EED6E020E080108017825E96E000EE8
:10038800080108017921EA6E000EEE6E080EED6E86
:10039800040E080108017825E96E000E080108011D
:1003A8007921EA6E060EEF6E050E08010801782520
:1003B800E96E000E080108017921EA6E040EEF6E5D
:1003C800060E08010801B06F000E0801B16F990E02
:1003D80008017A6F000E7B6F7AC8AEF87BC8AFF859
:1003E800080E08010801782508010801AC6F000E05
:1003F8000801080179210801AD6F21EC1EF00E0EED
:10040800080108017825E96E000E08010801792124
:10041800EA6E00016CC0EEFF00016DC0EEFF000146
:100428006EC0EEFF00016FC0EEFF78C87CF879C897
:100438007DF89DEC12F01C0E08010801BD6F000E3E
:100448000801BE6F08017A6F060E08010801BC6F2B
:1004580008017A51120E08010801782508010801DF
:10046800BA6F000E0801080179210801BB6FB8ECCA
:1004780014F01C0E08010801C26F000E0801C36FBA
:1004880078C8C0F879C8C1F8B4EC20F0F2EC19F0DB
:10049800010E4FEF02F01200BD0E080108014F6F68
:1004A800FF0E0801506F74EC0BF00009D8A45FEF41
:1004B80002F061EF02F063EF02F0FCEF02F06EEC85
:1004C8000AF05EC8F9F15FC8FAF160C8FBF161C8CB
:1004D800FCF1DA0E080108014F6FFF0E0801506F9A
:1004E80074EC0BF00009D8A47CEF02F07EEF02F068
:1004F80080EF02F0FCEF02F06EEC0AF05EC8BAF68C
:100508005FC8BBF6A90E080108014F6FFF0E08016E
:10051800506F74EC0BF00009D8A495EF02F097EF38
:1005280002F099EF02F0FCEF02F06EEC0AF05EC800
:10053800C8F65FC8C9F685EC23F008014E6F000EB7
:10054800080108014C6F08014E51090E0801080105
:100558004C65B1EF02F0B3EF02F0B5EF02F0FAEF3D
:1005680002F008014E6F020E080108014F6F0801E2
:100578004E5190EC23F063EC0DF008014E6F000E25
:10058800080108014D6F08014E510A0E08010801C3
:100598004D65D1EF02F0D3EF02F0D5EF02F0EDEFA9
:1005A80002F00E0E08014E6F850EE82ED9EF02F00C
:1005B8004E2FD9EF02F000D0080108014D2B0A0E8A
:1005C800080108014D65EBEF02F0EDEF02F0D5EF01
:1005D80002F0080108014C2B090E080108014C65BE
:1005E800F8EF02F0FAEF02F0B5EF02F07BEC23F03F
:1005F800120012C817F811C816F881EC11F008019A
:100608000801136F06010601B7670DEF03F00FEF3E
:1006180003F017EF03F00801146F000E060106013E
:10062800DB6F08011451080108011351FE0AD8A410
:1006380020EF03F022EF03F02BEF03F0FE0E08018A
:100648000801116FFF0E0801126FA2EF03F00801F5
:1006580008011329D8A433EF03F035EF03F03CEF7A
:1006680003F008010801116908011269A2EF03F0FB
:1006780006010601B551040AD8A445EF03F047EF77
:1006880003F053EF03F00601DB3BF00EDB17080124
:10069800146F000E06010601B56F08011451080118
:1006A80008011351D8B45BEF03F05DEF03F072EF6C
:1006B80003F0B5C614F8010E0801156F0801142BD4
:1006C80069EF03F0D890080115370801142F66EF79
:1006D80003F00801155106010601DB1306010601A6
:1006E800B72B06010601B52B080E06010601B761F6
:1006F80080EF03F082EF03F089EF03F008010801AF
:10070800116908011269A2EF03F00801146F000EC5
:1007180006010601B76F080114510801146F000E95
:1007280006010601B56F0801145106010801DBC670
:1007380011F808010801126BA2EF03F01200000E75
:1007480008010801006F000E0801016F000E080182
:10075800026F000E0801036F000E0E010E01B66F46
:10076800000E0E010E01B76F000E926E000E936E12
:10077800000E946E000E956E000E966E000E976E2B
:10078800000E986E000E806E000E816E000E826E56
:10079800000E836E000E846E000E856E400E9B6EFA
:1007A8000F0EC16E5BEC23F0B2EC22F0F9EC1CF0FA
:1007B80089EC23F034ECD2F09CEC23F051EC23F0DC
:1007C800FDEC1AF0420E080108010B6F370E080104
:1007D8000C6F0801046F140E080108010A6F080164
:1007E800045192EC20F0BBECBDF093EC23F0F5EC57
:1007F80022F008010801005108010801A15D080163
:10080800046F08010801015108010801A2590801F3
:10081800056F08010801025108010801A3590801E0
:10082800066F08010801035108010801A4590801CD
:10083800076FF20E0801045D9E0E0559000E065959
:10084800000E08010759D8A02CEF04F02EEF04F091
:1008580038EF04F0F5EC22F0A1C800F8A2C801F8BE
:10086800A3C802F8A4C803F80AECB8F0B7ECCEF0B5
:10087800EBEC09F00400F7EF03F014EF00F0D89068
:1008880008010801BD3108010801BF6F080108010E
:10089800BC310801BE6FBAC8C0F8BBC8C1F8000EA9
:1008A80008010801C26F000E0801C36F000E08019D
:1008B800C46F000E0801C56F85EF04F00801C0C8B9
:1008C800E9FF0801C1C8EAFF0801020E0801C027B4
:1008D800000E0801C123EECFC6F8EDCFC7F8080116
:1008E800C65108010801C2270801C75108010801BB
:1008F800C323000E08010801C423000E08010801E3
:10090800C52308010801BE07D8A0BF070801BE29F2
:10091800D8B4BF29D8A493EF04F095EF04F062EFA0
:1009280004F008010801BCA19CEF04F09EEF04F05C
:10093800B1EF04F0C0C8E9FFC1C8EAFFEF500801F1
:10094800C66F0801C65108010801C227000E080138
:10095800C3230801C4230801C52308010801C251A3
:1009680008010801C42508010801C26F080108012F
:10097800C35108010801C5210801C36F0801C46BF0
:10098800D8B0C42B0801C56B080108EEC4F0EE50BE
:1009980008010801C227ED5008010801C323080116
:1009A8000801C21D08010801BA6F08010801C31D2A
:1009B8000801BB6FE0EF04F01200000E0801080107
:1009C800376F000E0801386F000E0801396F000EEE
:1009D80008013A6F08013551321133113411D8B476
:1009E800F8EF04F0FAEF04F06DEF05F008013B6F43
:1009F800010E08010801366F08013B5111EF05F09F
:100A08000801D89008013237080133370801343714
:100A18000801353708010801362B0801080135AFF0
:100A280018EF05F01AEF05F004EF05F00801D8906B
:100A380008013737080138370801393708013A37CC
:100A4800080108013251080108012E5D080108015A
:100A58003351080108012F590801080134510801D0
:100A680008013059080108013551080108013159B8
:100A7800D8A041EF05F043EF05F05EEF05F008015F
:100A880008013251080108012E5F0801080133519D
:100A9800080108012F5B0801080134510801080109
:100AA800305B08010801355108010801315B080174
:100AB800080137810801D89008013533080134331B
:100AC800080133330801323308010801362F1AEFC1
:100AD80005F037C82EF838C82FF839C830F83AC8A2
:100AE80031F877EF05F01200070107013429D8A47F
:100AF80080EF05F082EF05F0A7EF05F0A9C653F8DF
:100B0800AAC654F8A9C651F8AAC652F80801336F04
:100B1800040E08010801506F08013351E60E080160
:100B2800346F040E356F080134C84CF8080135C815
:100B38004DF8080108014E6B08014F6B61ECC6F0D7
:100B480007010701346F070107013429D8A4AFEF63
:100B580005F0B1EF05F0B3EF05F00EEF06F034C77E
:100B68004CF8ACEC19F008014D514C11D8A4BFEF6A
:100B780005F0C1EF05F0C3EF05F00EEF06F002EC4B
:100B880023F036C82FF837C830F82FC83DF830C8DA
:100B98003EF8C9EC18F03DC82DF83EC82EF8000EF6
:100BA80008010801316F000E0801326FF4EF05F0FB
:100BB800080108013151080108012F25E96E0801D3
:100BC80008013251080108013021EA6EEF5008018E
:100BD8000801536F90EC1DF008010801314B322BCE
:100BE800080108013251800A0801336F08012D51AC
:100BF80008010801315D080108012E51800A080129
:100C08003359D8A00AEF06F00CEF06F0DCEF05F038
:100C18000FEC06F0120006010601B051170D010194
:100C2800000EF324080108014E6F08014F6B010103
:100C3800010E08014F23080E05010501FA250801D8
:100C480008014C6F000E05010501FB2108014D6FDD
:100C58000C0E080108014E25E96E000E0801080176
:100C68004F21EA6E0801EECFBCF80801EDCFBDF8C0
:100C780071EC22F0BCC850F8BDC851F80A0E080142
:100C880008014E25E96E000E080108014F21EA6EA1
:100C98000801EECFBCF80801EDCFBDF871EC22F0E9
:100CA800BCC852F8BDC853F84CC8BCF84DC8BDF80C
:100CB80071EC22F0BCC854F8BDC855F8000E080104
:100CC8000801566F000E0801576FDD0E0801080174
:100CD800AC6F0A0E0801AD6F30EC23F04CC8A3F8D6
:100CE8004DC8A4F80801586F110E08010801A26F39
:100CF800080158514EC8A0F84FC8A1F83AECE6F0E0
:100D0800080E08010801C26F000E0801C36F080130
:100D1800500E08010801C06F0801080E0801C16FD4
:100D2800B4EC20F0F2EC19F0000E05010501FA6FA1
:100D3800000E0501FB6F0701070130691200080169
:100D4800776F000E08010801766F080177510E0EC3
:100D5800080108017665B3EF06F0B5EF06F0B7EFC6
:100D680006F02FEF07F0010E070107011D15080116
:100D7800776F000E070107011E150801786F000E36
:100D8800070107011F150801796F000E0701070108
:100D9800201508017A6F08017751000808017B6F58
:100DA800000E0801785508017C6F000E080179557E
:100DB80008017D6F000E08017A5508017E6F010E4B
:100DC80008017B1508017F6F000E08017C150801DA
:100DD800806F000E08017D150801816FD00E080193
:100DE8007E150801826F07011DC783F807011EC71A
:100DF80084F807011FC785F8070120C786F8D8902F
:100E08000801863385338433833308017F51080111
:100E18008319070107011D6F080180510801841912
:100E280007011E6F080181510801851907011F6F0D
:100E380008018251080186190701206F080108017D
:100E4800762B0E0E0801080176652DEF07F02FEFBF
:100E580007F0B7EF06F01DC774F81EC775F835EF31
:100E680007F01200010E08010801566F000E080174
:100E7800576F0801080162690801080163690801E0
:100E880008016469080108016569080108016669C3
:100E98000801080167694CC84EF84DC84FF84CC89E
:100EA800E9FF4DC8EAFFEECF6CF8EECF6DF8EECF54
:100EB8006EF8EECF6FF8000100016C5108016C1953
:100EC8000801706F000100016D5108016D190801DA
:100ED800716F000100016E5108016E190801726FEF
:100EE800000100016F5108016F190801736F0001BB
:100EF80000017051080170150801746F00010001AC
:100F08007151080171150801756F000100017251D6
:100F1800080172150801766F00010001735108017C
:100F280073150801776F08017751741175117611DF
:100F3800D8B4A1EF07F0A3EF07F0ACEF07F000017A
:100F4800740E080108014E6F0001000E08014F6F72
:100F58004EC8E9FF4FC8EAFF0801EECF68F808015C
:100F6800EECF69F80801EECF6AF80801EECF6BF80A
:100F78000801500E08010801786F0801080E0801E1
:100F8800796FA1EC01F012004AEF08F0FAEF07F0D0
:100F9800AAC8B0F8ABC8B1F8A7C8AEF8A8C8AFF8E7
:100FA800A4C8ACF8A5C8ADF821EC1EF003EF08F012
:100FB80008010801A429D8B4A529D8B4E6EF07F098
:100FC800E8EF07F0EEEF07F0A4C8ACF8A5C8ADF855
:100FD80030EC23F0AAC8C2F8ABC8C3F8A7C8C0F859
:100FE800A8C8C1F8B4EC20F003EF08F00801080124
:100FF800A651000ADDE0010ACBE003EF08F054EF48
:1010080008F041EF08F008010801A729D8B4A82979
:10101800D8B411EF08F013EF08F019EF08F0A7C8DB
:10102800ACF8A8C8ADF83BEC23F0AAC8C4F8ABC824
:10103800C5F8A4C8C2F8A5C8C3F861EC19F003EF55
:1010480008F0AAC8B0F8ABC8B1F8A7C8AEF8A8C8E5
:10105800AFF8A4C8ACF8A5C8ADF835ECCCF035EFBE
:1010680008F00EEC23F00009D8B43DEF08F03FEF8C
:1010780008F035EF08F003EF08F008010801A65161
:10108800000ADFE0010ABFE003EF08F008010801E9
:10109800A951000AB6E0010A01E178D754EF08F037
:1010A800120057EF08F0C5CF29F81F0E08012917BD
:1010B80029C82AF808012B6B000EC7B4010E0801D5
:1010C8002A13000E2B1308012B512A11D8A46FEFF5
:1010D80008F071EF08F057EF08F0C58074EF08F0DA
:1010E800C5B079EF08F07BEF08F074EF08F0A1A61F
:1010F80080EF08F082EF08F084EF08F0DEEF08F0E8
:1011080026C82CF8BEEC1AF00009D8B48EEF08F007
:1011180090EF08F093EF08F0C584DEEF08F0C5BC47
:1011280098EF08F09AEF08F0C6EF08F027C82CF8F7
:10113800BEEC1AF00009D8B4A4EF08F0A6EF08F046
:10114800A9EF08F0C584DEEF08F0C5BCAEEF08F0E3
:10115800B0EF08F0C1EF08F028C82CF8BEEC1AF080
:101168000009D8B4BAEF08F0BCEF08F0BFEF08F0F8
:10117800C584DEEF08F0C4EF08F0C584DEEF08F0A0
:10118800C9EF08F0C584DEEF08F0C584CCEF08F09D
:10119800C5B4D1EF08F0D3EF08F0CCEF08F0A1A662
:1011A800D8EF08F0DAEF08F0DCEF08F0DEEF08F02F
:1011B800DEEF08F0120007010701335107010701AC
:1011C8002F63E9EF08F0EBEF08F0EDEF08F066EFBA
:1011D80009F0070107012F51FE0AD8B4F6EF08F00D
:1011E800F8EF08F041EF09F0270E08010801AA6F8F
:1011F800000E0801AB6F0801A06F010E080108017D
:10120800A96F0801A0511D0E08010801A76F000E63
:101218000801A86F070107012F511C0DF3CFA1F892
:101228001B0E0801A1270101BD0E0801A125E96EC9
:10123800EA6A0101010EEA22EF5008010801A66FCF
:10124800070107012F511C0D0101BD0EF324E96EA2
:10125800EA6A0101010EEA22EECFA2F8EDCFA3F867
:10126800D90E0801A22508010801A46FFF0E080184
:10127800A3210801A56FC8EC07F033C72FF7270E85
:1012880008010801AA6F000E0801AB6F1CC0A9F87D
:10129800D90E012408010801A76FFF0E02200801DA
:1012A800A86F0801A06F010E08010801A66F0801C8
:1012B800A0511D0E08010801A46F000E0801A56FBA
:1012C800C8EC07F012000601D890D43708010801CD
:1012D800EF51D8B472EF09F074EF09F097EF09F005
:1012E80006010601CA2B06010601CA51030AD8A441
:1012F80080EF09F082EF09F088EF09F0070E060188
:101308000601D41395EF09F0030E06010601CA651C
:1013180090EF09F092EF09F095EF09F00601060148
:10132800D4819FEF09F00801F06F000E0601060155
:10133800CA6F0801F0510601D890D7370601060197
:10134800DE2B06010601D4AFACEF09F0AEEF09F0D1
:10135800B3EF09F006010601D781B3EF09F00601E2
:101368000601DE51080AD8A4BCEF09F0BEEF09F067
:10137800EAEF09F00801F06F000E06010601DE6FC2
:101388000801F051C80E060106018D25E96E020E0E
:10139800060106018E21EA6E0601D7C6EFFF060197
:1013A80006018D4B8E2B060106018E51020A8D1106
:1013B800D8A4E1EF09F0E3EF09F0EAEF09F0000E35
:1013C800060106018D6F000E06018E6F120064EF94
:1013D8000AF04A0E08010801536FA50E0801546F60
:1013E8004A0E08010801516FA50E0801526F080145
:1013F800096F040E08010801506F08010951000E19
:10140800080108014C6F000E08014D6F000E08011D
:101418004E6F000E08014F6F61ECC6F00601060121
:101428009A6F060106019A29D8A41DEF0AF01FEF4A
:101438000AF021EF0AF06DEF0AF00801096F010EBA
:1014480006010601D86F080109516DEF0AF09AC626
:101458004CF87EEC1AF008014D514C11D8A437EF26
:101468000AF039EF0AF03BEF0AF06DEF0AF05CEC96
:101478001FF04EEF0AF00801080E080108014D6F31
:101488000801080E08014E6F5EEC1DF008C849F807
:1014980086EC1FF09AC64CF87EEC1AF008014D5104
:1014A8004C11D8A45AEF0AF05CEF0AF03FEF0AF0AB
:1014B8007EEC21F079ECE2F05CEC1FF06DEF0AF0C5
:1014C80006010601D851000A84E0010AC0E06DEF68
:1014D8000AF01200000E08010801666F000E0801EC
:1014E800676F000E0801686F000E0801696F66ECEF
:1014F80021F00009D8A483EF0AF085EF0AF094EFF1
:101508000AF0000E080108015E6F000E08015F6F07
:10151800000E0801606F000E0801616FF0EF0AF01D
:1015280001010101FF2BDCEF0AF00201000E0101AD
:101538000101FF25E96EEA6A0201020EEA22EF5074
:1015480008016A6F08016A5108010801626F080101
:10155800636B0801646B0801656B01010101FF2BD6
:1015680008016251730A631164116511D8A4BFEFB1
:101578000AF0C1EF0AF0C3EF0AF0E6EF0AF008013B
:10158800040ED890080166370801673708016837E4
:1015980008016937E82EC5EF0AF062C86BF822EC3B
:1015A8000FF008016A6F08016A5108010801661303
:1015B800C70E01010101FF65E4EF0AF0E6EF0AF04A
:1015C80099EF0AF066C85EF867C85FF868C860F8FF
:1015D80069C861F8F0EF0AF01200D9CEA4F8EECE8F
:1015E800A2F8EFCEA3F808010801A4510E010E01DC
:1015F800D96301EF0BF003EF0BF0F1EF0AF0ECCE3B
:10160800A4F8EDCEA5F808010801A25108010801C7
:10161800A45D08010801A35108010801A559D8B023
:1016280018EF0BF01AEF0BF039EF0BF00801A2C816
:10163800A6F80801A3C8A7F808010801A4510801E1
:10164800A65F08010801A5510801A75B0801A6517A
:10165800CD0808010801A06F0801A751D8A0E82A01
:101668000A080801A16F73EF0BF008010801A551E2
:1016780008010801A31906E108010801A45108019D
:101688000801A219D8A44BEF0BF04DEF0BF056EF61
:101698000BF0CD0E08010801A06F0A0E0801A16F1A
:1016A80073EF0BF00801A4C8A6F80801A5C8A7F8AD
:1016B80008010801A2510801A65F08010801A35109
:1016C8000801A75BFF0E0801A62508010801A06F05
:1016D800FF0E0801A7210801A16F73EF0BF012009C
:1016E800CBC6FFF1E6EF0BF008015D6F0C0E0801A9
:1016F8000801606F08015D510801510E08010801D9
:101708005E6F0801080E08015F6F7EECE5F00009C6
:10171800D8A491EF0BF093EF0BF096EF0BF0000EBF
:10172800F3EF0BF00801510E08010801606F080182
:10173800080E0801616F4FC85EF850C85FF873EC77
:101748000CF008015F515E11D8A4ADEF0BF0AFEFBC
:101758000BF0B2EF0BF0010EF3EF0BF066EC21F09B
:101768000009D8B4BAEF0BF0BCEF0BF0C0EF0BF0E8
:101778006EEC0AF0D1EF0BF008015D6F000E080166
:101788000801606F08015D51000E080108015E6FD5
:10179800000E08015F6F7EECE5F00201000E01010A
:1017A8000101FF25E96EEA6A0201020EEA22730EC0
:1017B800EF62E1EF0BF0E3EF0BF0E6EF0BF0000E5A
:1017C800F3EF0BF0C70E01010101FF65EEEF0BF01F
:1017D800F0EF0BF078EF0BF0000EF3EF0BF01200C8
:1017E8000094000E06010601B36F00924CC8E9FF91
:1017F8004DC8EAFFEF5006010601B46FB18005EF4E
:101808000CF000A20AEF0CF00CEF0CF005EF0CF056
:101818009D92010E080108014E6F000E08014F6FDE
:101828004FEF0CF0080108014E51080108014C2542
:10183800E96E080108014F51080108014D21EA6EBF
:10184800010EEF622AEF0CF02CEF0CF02FEF0CF0EA
:1018580000844BEF0CF00092080108014E5108017A
:1018680008014C25E96E080108014F5108010801DB
:101878004D21EA6EEF5006010601B46F44EF0CF0FB
:1018880000A249EF0CF04BEF0CF044EF0CF008010C
:1018980008014E4B4F2B080108014E510801080161
:1018A8004C25E96E080108014F51080108014D2136
:1018B800EA6EEF50D8A463EF0CF065EF0CF016EF6A
:1018C8000CF09D82009269EF0CF000A26EEF0CF014
:1018D80070EF0CF069EF0CF0B1908998120077EF77
:1018E8000CF077EF0CF00801080160510801636FF4
:1018F8000801080161510801646F0801604B612B00
:1019080063C8F6FF64C8F7FF000EF86E0E0EF764A2
:1019180003D00800F55005D0F6CFE9FFF7CFEAFF6E
:10192800EF500801656F08015EC8F6FF08015FC83F
:10193800F7FF000EF86E0E0EF76403D00800F5509E
:1019480005D0F6CFE9FFF7CFEAFFEF500801666F41
:10195800080165510801665D08010801626F080108
:101968006267B9EF0CF0BBEF0CF0E1EF0CF0080187
:1019780008015E510801636F080108015F51080101
:10198800646F08015E4B5F2B63C8F6FF64C8F7FFFE
:10199800000EF86E0E0EF76403D00800F55005D05F
:1019A800F6CFE9FFF7CFEAFFEF500009D8A4DFEF41
:1019B8000CF0E1EF0CF075EF0CF008010801625132
:1019C800080108015E6F08015F6B08015EBF5F07D1
:1019D800EEEF0CF012000001000198ADF6EF0CF0EC
:1019E800F8EF0CF027EF0DF000010001EC690001A1
:1019F800ED690001EE690001EF6900010001F0697D
:101A08000001F1690001F2690001F36900010001B8
:101A1800F4690001F5690001F6690001F769000140
:101A28000001F8690001F9690001FA690001FB6920
:101A380000010001FC690001FD690001FE69000167
:101A4800FF694FEF0DF06CC0ECF06DC0EDF06EC0AB
:101A5800EEF06FC0EFF070C0F0F071C0F1F072C03E
:101A6800F2F073C0F3F074C0F4F075C0F5F076C00E
:101A7800F6F077C0F7F078C0F8F079C0F9F07AC0DE
:101A8800FAF07BC0FBF07CC0FCF07DC0FDF07EC0AE
:101A9800FEF07FC0FFF0250E08010801216F000E3F
:101AA8000801226F0001DB0E080108011F6F000109
:101AB800000E0801206F38EC1AF0FF001200898828
:101AC800050E08014F6F300EE82E68EF0DF04F2F0E
:101AD80068EF0DF089982B0E08014F6F560EE82E0F
:101AE80073EF0DF04F2F73EF0DF0040008014F6FE7
:101AF800020E08010801516F08014F51FCC150F84E
:101B08003FEC12F008014F6F080E08010801516FF1
:101B180008014F51FBC150F83FEC12F008014F6F1C
:101B2800080E08010801516F08014F51FAC150F819
:101B38003FEC12F008014F6F080E08010801516FC1
:101B480008014F51F9C150F83FEC12F050EC1EF06B
:101B580006010601C805C911D8A4B5EF0DF0B7EF05
:101B68000DF0BBEF0DF0AAEC1EF0BDEF0DF050EC40
:101B78001EF008014F6F040E08010801516F08019B
:101B88004F51BAC650F83FEC12F08988050E08018B
:101B98004F6F300EE82ECEEF0DF04F2FCEEF0DF039
:101BA800899812000801326F000E08010801316F90
:101BB800080132512EC8E9FF2FC8EAFFEF5008018B
:101BC8000801356F2CC8E9FF2DC8EAFF0801EECFE0
:101BD80033F80801EDCF34F87DEC1EF0D8B0F7EFFC
:101BE8000DF0FAEF0DF0010EFBEF0DF0000E0801FD
:101BF8000801306F08010801312B2EC835F82FC8AD
:101C080036F82CC833F82DC834F890EC1CF02EC8E0
:101C1800E9FF2FC8EAFFEF5008010801356F2CC80B
:101C2800E9FF2DC8EAFF0801EECF33F80801EDCF30
:101C380034F87DEC1EF0D8B024EF0EF027EF0EF04C
:101C4800010E28EF0EF0000E080108013019D8B473
:101C580030EF0EF032EF0EF037EF0EF0080108010A
:101C6800315146EF0EF0080108013129D8A43FEFA1
:101C78000EF041EF0EF044EF0EF0000E46EF0EF0BE
:101C8800FEEF0DF01200080108016051070107017D
:101C9800336351EF0EF053EF0EF055EF0EF0B4EF43
:101CA8000EF0070107013351FE0AD8B45EEF0EF0BB
:101CB80060EF0EF080EF0EF01C0E08010801B06F07
:101CC800000E0801B16F010E08010801AE6F000E89
:101CD8000801AF6F0701070133511C0D0101BD0E4B
:101CE800F32408010801AC6F0801AD6B0101010E76
:101CF8000801AD2321EC1EF060C833F70801080184
:101D08006051FE0AD8A48BEF0EF08DEF0EF08FEF26
:101D18000EF0B4EF0EF01C0E08010801B06F000EB3
:101D28000801B16F0801080160511C0DBD0E0801C2
:101D3800616F010E626FF35008016127E86AF3BE14
:101D4800E8680801622361C8AEF862C8AFF8010EFE
:101D580008010801AC6F000E0801AD6F21EC1EF000
:101D68001200B7EF0EF0C5CF27F81F0E080127178E
:101D780027C828F80801296B000EC7B4010E08010E
:101D88002813000E2913080129512811D8A4CFEFD0
:101D98000EF0D1EF0EF0B7EF0EF0C580D4EF0EF0D5
:101DA800C5B0D9EF0EF0DBEF0EF0D4EF0EF0A1A620
:101DB800E0EF0EF0E2EF0EF0E4EF0EF021EF0FF09F
:101DC80026C82CF8BEEC1AF0EAEF0EF005EF0FF07B
:101DD800C582EFEF0EF0C5B2F4EF0EF0F6EF0EF09D
:101DE800EFEF0EF0A1A6FBEF0EF0FDEF0EF0FFEF08
:101DF8000EF021EF0FF026C82CF8BEEC1AF005EF14
:101E08000FF0C5BC0AEF0FF00CEF0FF0ECEF0EF07F
:101E1800C5840FEF0FF0C5B414EF0FF016EF0FF0F5
:101E28000FEF0FF0A1A61BEF0FF01DEF0FF01FEF44
:101E38000FF021EF0FF021EF0FF0120054EF0FF029
:101E4800000E88EF0FF0010E88EF0FF0020E88EFFA
:101E58000FF0030E88EF0FF0040E88EF0FF0050E59
:101E680088EF0FF0060E88EF0FF0070E88EF0FF0DF
:101E7800080E88EF0FF0090E88EF0FF00A0E88EFB2
:101E88000FF00B0E88EF0FF00C0E88EF0FF00D0E11
:101E980088EF0FF00E0E88EF0FF00F0E88EF0FF09F
:101EA800080108016B51300ACBE0010ACCE0030AB3
:101EB800CDE0010ACEE0070ACFE0010AD0E0030A2C
:101EC800D1E0010AD2E00F0AD3E0010AD4E0780A8F
:101ED800D5E0030AD6E0010AD7E0070AD8E0010AEC
:101EE800D9E0030ADAE0270AC9E0030ACAE0010ACE
:101EF800CBE0070ACCE0010ACDE0030ACEE085EF8B
:101F08000FF0000E88EF0FF0120006010601815154
:101F180005010501FE5D0601060182510501050165
:101F2800FF59D8B09AEF0FF09CEF0FF0A9EF0FF020
:101F380007010701325106010601B019D8B4A7EF0D
:101F48000FF0A9EF0FF0ABEF0FF0EFEF0FF0050177
:101F58000501FE5106010601815D08010801516F66
:101F680005010501FF510601060182590801526F5A
:101F7800080108014F5108010801515D08010801D5
:101F88005051080108015259D8B0CDEF0FF0CFEFEA
:101F98000FF0D3EF0FF051C84FF852C850F84FC8A0
:101FA800C4F850C8C5F84DC8C2F84EC8C3F861ECAB
:101FB80019F0C2C84FF8C3C850F8080108014F51BA
:101FC80005010501FE270801080150510501050119
:101FD800FF23EFEF0FF0120012C816F811C815F81A
:101FE80077ECDCF008010801136F080108011351B0
:101FF800FE0AD8A402EF10F004EF10F00DEF10F075
:10200800FE0E08010801116FFF0E0801126F56EF4E
:1020180010F0080108011329D8A415EF10F017EFE4
:1020280010F01EEF10F0080108011169080112698B
:1020380056EF10F00601D890D23308010801135169
:10204800D8B429EF10F02BEF10F02EEF10F00601A6
:102058000601D28F06010601D12B06010601D52BF8
:10206800080E06010601D5613CEF10F03EEF10F0B6
:1020780045EF10F00801080111690801126956EFCF
:1020880010F00801146F000E06010601D56F080153
:10209800145106010801D2C611F808010801126B93
:1020A80056EF10F01200020E08010801BA25E96E79
:1020B800000E08010801BB21EA6E0801EECFBCF84A
:1020C8000801EDCFBDF871EC22F0020E08010801FD
:1020D800BA25E96E000E08010801BB21EA6E080165
:1020E800BCC8EEFF0801BDC8EDFF040E08010801D9
:1020F800BA25E96E000E08010801BB21EA6E080145
:10210800EECFBCF80801EDCFBDF871EC22F0040E5B
:1021180008010801BA25E96E000E08010801BB2173
:10212800EA6E0801BCC8EEFF0801BDC8EDFF0A0E43
:1021380008010801BA25E96E000E08010801BB2153
:10214800EA6E0801EECFBCF80801EDCFBDF871ECDE
:1021580022F00A0E08010801BA25E96E000E0801EE
:102168000801BB21EA6E0801BCC8EEFF0801BDC822
:10217800EDFF1200800E08010801276F000E08010C
:10218800286F0801080128512711D8A4CEEF10F0B4
:10219800D0EF10F0D2EF10F01BEF11F00801000E95
:1021A800080122BF010E08010801256F0801266BEE
:1021B8000801080123510801080127150009D8B4AE
:1021C800E8EF10F0EAEF10F0F6EF10F00801080160
:1021D80026512511000ED8B4010E08010801256FFB
:1021E8000801266B0801D8902237080108012651FA
:1021F8002511D8B402EF11F004EF11F00AEF11F035
:1022080008010801245108010801221B0801D8907F
:10221800080128330801273308010801285127112C
:10222800D8A419EF11F01BEF11F0D2EF10F008014C
:102238000801225120EF11F0120027C82EF828C8F3
:102248002FF825C82CF826C82DF8D6EC0DF0080173
:1022580008012A6F1D0E080108012A6536EF11F0E2
:1022680038EF11F045EF11F0290E080108012A6135
:1022780040EF11F042EF11F045EF11F0000E80EF42
:1022880011F027C82EF828C82FF825C82CF826C81A
:102298002DF8D6EC0DF008010801296F090E080188
:1022A80008012A655AEF11F05CEF11F07DEF11F08B
:1022B800150E080108012A6164EF11F066EF11F0AC
:1022C8007DEF11F0090E0801080129656EEF11F084
:1022D80070EF11F07DEF11F0150E0801080129616A
:1022E80078EF11F07AEF11F07DEF11F0010E80EF29
:1022F80011F0020E80EF11F012000D0E0801080116
:10230800176589EF11F08BEF11F0B3EF11F0160E8E
:1023180008010801176193EF11F095EF11F0B3EF81
:1023280011F005010501FCA19CEF11F09EEF11F0E1
:10233800A1EF11F0FE0EDFEF11F0020E050105010D
:10234800FC2505010501FC6F000E05010501FD21B5
:102358000501FD6F080108011651DFEF11F0050EA8
:10236800080108011765BBEF11F0BDEF11F0DCEFB4
:1023780011F00C0E080108011761C5EF11F0C7EF45
:1023880011F0DCEF11F005010501FC4BFD2B0501F7
:102398000501FCB1D2EF11F0D4EF11F0D9EF11F033
:1023A800080108011651DFEF11F0FF0EDFEF11F001
:1023B800FE0EDFEF11F01200080108010D29D8B454
:1023C8000E29D8A4EAEF11F0ECEF11F0F3EF11F0B9
:1023D800080108010D6908010E693EEF12F00801B5
:1023E80008011051800A0801116F08010D510801F8
:1023F80008010F5D080108010E51800A08011159F2
:10240800D8A009EF12F00BEF12F01EEF12F008013E
:1024180008010D51080108010F5D080108010D6F41
:10242800080108010E5108010801105908010E6F32
:102438003EEF12F0000E0801116F020E126F080134
:1024480008010D510801115F080108010E5108012A
:10245800125B080108010F51080111250801080144
:102468000D6F0801080110510801122108010E6FB3
:102478003EEF12F012000801546F010E0801080126
:10248800536F080154510801546F000E08010801E8
:10249800526F0801545151C854F8FF0E08015427CF
:1024A800010E0801556F0801542B5EEF12F0D89009
:1024B800080155370801542F5BEF12F008015551F8
:1024C80008010801536F0801546F000E0801080144
:1024D800526F080154518FEF12F008010801505152
:1024E8000801080153150009D8B47DEF12F07FEFF9
:1024F80012F083EF12F0AAEC1EF085EF12F050EC08
:102508001EF00801D8900801533108010801536FE3
:1025180008010801522B080108015151080108015E
:10252800525DD8A09AEF12F09CEF12F071EF12F002
:1025380012007CC8E9FF7DC8EAFF0801EECFBCF8AD
:102548000801EDCFBDF871EC22F07CC8E9FF7DC829
:10255800EAFF0801BCC8EEFF0801BDC8EDFF020E86
:10256800080108017C25E96E000E080108017D219B
:10257800EA6E0801EECFBCF80801EDCFBDF871ECAA
:1025880022F0020E080108017C25E96E000E080100
:1025980008017D21EA6E0801BCC8EEFF0801BDC82C
:1025A800EDFF060E080108017C25E96E000E080102
:1025B80008017D21EA6E0801EECFBCF80801EDCFD5
:1025C800BDF871EC22F0060E080108017C25E96EC1
:1025D800000E080108017D21EA6E0801BCC8EEFF63
:1025E8000801BDC8EDFF120001010101F751C00843
:1025F80008010801576F01010101F851D8A0E82A24
:1026080005080801586F080108015551080108011B
:10261800575D080108015651080108015859D8B0FA
:1026280018EF13F01AEF13F01EEF13F057C855F810
:1026380058C856F808010801555101010101F7274A
:1026480008010801565101010101F82301010101A6
:10265800F75105010501FA5D01010101F851050174
:102668000501FB59D8B03BEF13F03DEF13F041EFF4
:1026780013F0F7C1FAF5F8C1FBF555C8C2F856C80A
:10268800C3F853C8C0F854C8C1F8B4EC20F055C812
:1026980053F856C854F851EF13F012000F0E080102
:1026A80008011F655AEF13F05CEF13F07DEF13F08C
:1026B8000A0E08010801206164EF13F066EF13F0B9
:1026C8007DEF13F00F0E0801080121656EEF13F07E
:1026D80070EF13F07DEF13F00A0E08010801226174
:1026E80078EF13F07AEF13F07DEF13F0000EABEFF5
:1026F80013F00A0E080108011F6185EF13F087EF38
:1027080013F0A8EF13F00F0E0801080120658FEFF2
:1027180013F091EF13F0A8EF13F00F0E0801080162
:10272800216599EF13F09BEF13F0A8EF13F00A0E51
:10273800080108012261A3EF13F0A5EF13F0A8EF39
:1027480013F0010EABEF13F0020EABEF13F0120013
:102758000F0E080108012465B4EF13F0B6EF13F06B
:10276800D7EF13F00A0E080108012561BEEF13F038
:10277800C0EF13F0D7EF13F00A0E08010801266125
:10278800C8EF13F0CAEF13F0D7EF13F00A0E0801E1
:1027980008012761D2EF13F0D4EF13F0D7EF13F04D
:1027A800000E05EF14F00A0E080108012461DFEF9E
:1027B80013F0E1EF13F002EF14F00A0E080108011C
:1027C8002561E9EF13F0EBEF13F002EF14F00F0EB1
:1027D800080108012665F3EF13F0F5EF13F002EF97
:1027E80014F00A0E080108012761FDEF13F0FFEF4E
:1027F80013F002EF14F0010E05EF14F0020E05EFCE
:1028080014F012000D0E080108011F610EEF14F0FC
:1028180010EF14F031EF14F00D0E080108012061DB
:1028280018EF14F01AEF14F031EF14F00D0E080140
:102838000801216122EF14F024EF14F031EF14F0B5
:10284800100E0801080122652CEF14F02EEF14F089
:1028580031EF14F0010E5FEF14F00D0E08010801BE
:102868001F6139EF14F03BEF14F05CEF14F0100E19
:1028780008010801206543EF14F045EF14F05CEF00
:1028880014F00D0E0801080121614DEF14F04FEF0F
:1028980014F05CEF14F00D0E08010801226157EFE7
:1028A80014F059EF14F05CEF14F0000E5FEF14F021
:1028B800020E5FEF14F01200DFEC08F02DC01AF0E2
:1028C8002EC01BF001C007F002C008F001C009F0DB
:1028D80002C00AF003C00BF004C00CF003C00DF0F6
:1028E80004C00EF00801736F0D0E08010801726F25
:1028F8000801735118A683EF14F085EF14F08DEFDB
:1029080014F00801736F040E08010801726F0801C2
:10291800735172C817F01890189218940B000E0093
:102928001898189A189C189E199019921994199623
:1029380019883F903F923F963F9801C029F002C006
:102948002AF0A3EC06F074C821F075C822F0A3ECB5
:1029580006F074C823F075C824F03D683E68010E7F
:102968002F6E000E306E1200CF0E0E010E01E26FB8
:102978000A0E0E01E36F0801DC0E0801BD270A0EDE
:102988000801BE23BDC8E6FEBEC8E7FE060E080164
:102998000801C26F000E0801C36FBAC8C0F8BBC8EF
:1029A800C1F8B4EC20F0060E08010801C26F000E51
:1029B8000801C36F0001990E08010801C06F0001EA
:1029C800000E0801C16FB4EC20F00801BF6F080EBB
:1029D80008010801C06F0801BF5180EC23F008010D
:1029E800BF6F060E08010801C06F0801BF5108013A
:1029F8000801BC6702EF15F004EF15F00CEF15F0B5
:102A08000801BF6F000E08010801C06F0801BF511F
:102A180080EC23F0120006010601D66716EF15F0C8
:102A280018EF15F042EF15F008011F6F010E0601AF
:102A38000601D66F08011F5108011F6F000E08011B
:102A480008011E6F08011F51000E080108011E65CC
:102A580030EF15F032EF15F034EF15F042EF15F0C6
:102A68004468080108011E2B000E080108011E65B4
:102A780040EF15F042EF15F034EF15F04428D8B4C4
:102A880048EF15F04AEF15F04FEF15F044C04CF839
:102A980097EC17F0446808011F6F010E0001000150
:102AA800456F08011F5108011F6F000E000100014A
:102AB800466F08011F510001468900014683120034
:102AC8000A0E08010801B06F000E0801B16F060177
:102AD80006019A51170D000E08011F6F010E206F95
:102AE800F35008011F27E86AF3BEE86808012023AD
:102AF8001FC8AEF820C8AFF80401E60E08010801A7
:102B0800AC6F0401040E0801AD6F21EC1EF0060144
:102B180006019A51170DF3CF1FF80A0E08011F2757
:102B28000101000E08011F25E96EEA6A0101010E84
:102B3800EA220601EECFA9F60601EDCFAAF60701B3
:102B480007013429D8B4ABEF15F0ADEF15F0B6EFA7
:102B580015F034C74CF897EC17F0070107013469F2
:102B6800B6EF15F01200FACFCBF8FBCFCCF8E9CFCF
:102B7800CDF8EACFCEF8E1CFCFF8E2CFD0F8D9CF71
:102B8800D1F8DACFD2F8F3CFD3F8F4CFD4F8F6CF20
:102B9800D5F8F7CFD6F8F8CFD7F8F5CFD8F8F2A40C
:102BA800D8EF15F0DAEF15F0DCEF15F096EC21F020
:102BB8009EA2E1EF15F0E3EF15F0E6EF15F050EC0B
:102BC800DEF09E92D8C8F5FFD7C8F8FFD6C8F7FF41
:102BD800D5C8F6FFD4C8F4FFD3C8F3FFD2C8DAFFCC
:102BE800D1C8D9FFD0C8E2FFCFC8E1FFCEC8EAFFFD
:102BF800CDC8E9FFCCC8FBFFCBC8FAFFCAC8E0FFC5
:102C0800C9C8E8FFC8C8D8FF1000EACFE4F8E1CF88
:102C1800E5F8E2CFE6F8D9CFE7F8DACFE8F8F3CF6E
:102C2800E9F8F4CFEAF8F6CFEBF8F7CFECF8F8CFFD
:102C3800EDF8F5CFEEF8A4A624EF16F026EF16F07F
:102C480031EF16F0E20E786E000E81B8010E080121
:102C58000801EF6F67EC09F0A496A1A236EF16F011
:102C680038EF16F03EEF16F0B368C40EB26EC5EC3E
:102C78001CF0A192EEC8F5FFEDC8F8FFECC8F7FF0D
:102C8800EBC8F6FFEAC8F4FFE9C8F3FFE8C8DAFFC3
:102C9800E7C8D9FFE6C8E2FFE5C8E1FFE4C8EAFFF4
:102CA800E3C8E9FFE2C8FBFFE1C8FAFF11001DC74E
:102CB80035F81EC736F81FC737F820C738F8080197
:102CC8003351301131113211D8A46DEF16F06FEF76
:102CD80016F07CEF16F0010E08010801306F000EA7
:102CE8000801316F000E0801326F000E0801336FC2
:102CF80030C81DF731C81EF732C81FF733C820F790
:102D08000801396F000E08010801346F08013951B4
:102D18000F0E08010801346594EF16F096EF16F0CF
:102D280098EF16F0A7EF16F0A3EC06F008010801DB
:102D3800342B0F0E080108013465A5EF16F0A7EF34
:102D480016F098EF16F0A9EF16F012000801276F99
:102D5800000E060106018F6F08012751000E0601BB
:102D68000601876F000E0601886F000E0601896F45
:102D7800000E06018A6F000E04010401F96F000EAF
:102D88000401FA6F000E0401FB6F000E0401FC6FD2
:102D9800010E07010701216F000E0701226F000EC7
:102DA8000701236F000E0701246F0801276F000E2B
:102DB80006010601B16F08012751000E0601060140
:102DC800C66F000E0601C76F0801276F000E0601C7
:102DD8000601A36F080127510801276F000E06019D
:102DE8000601AD6F08012751120038C83DF839C8EF
:102DF8003EF8C9EC18F0080108013D510801080126
:102E08003D6F04EC1FF0080108013B6F38C83DF81E
:102E180039C83EF8C9EC18F0080108013D5108010D
:102E28000801496F30EC1FF0080108013A6F0801EA
:102E380008013B51300AD8B424EF17F026EF17F0F9
:102E48002AEF17F03BC849F886EC1FF03AC849F852
:102E580086EC1FF008013C6F3A0E08010801496F23
:102E680008013C5186EC1FF038C83FF839C840F8D3
:102E78000201000E080108013D6F0201020E08015F
:102E88003E6F7DEC18F0120034C83DF835C83EF8A6
:102E9800C9EC18F0080108013D51080108013D6F0F
:102EA80004EC1FF008010801376F34C83DF835C835
:102EB8003EF8C9EC18F0080108013D510801080165
:102EC800496F30EC1FF008010801366F080108014E
:102ED8003751300AD8B473EF17F075EF17F079EF60
:102EE80017F037C849F886EC1FF036C849F886EC61
:102EF8001FF00801386F3A0E08010801496F0801F0
:102F0800385186EC1FF034C83FF835C840F8020144
:102F1800000E080108013D6F0201020E08013E6F14
:102F28007DEC18F01200040E080108014C659FEFB3
:102F380017F0A1EF17F0A3EF17F0E3EF17F0080170
:102F480008014C51170DF3CF4DF80C0E08014D2711
:102F58000101000E08014D25E96EEA6A0101010E22
:102F6800EA22000EEE6E000EED6E080108014C51CB
:102F7800170D0101000EF324E96EEA6A0101010E42
:102F8800EA22000EEE6E000EEE6E000EEE6E000EE1
:102F9800ED6EED52ED52080108014C51170DF3CFBB
:102FA8004DF80E0E08014D270101000E08014D25B0
:102FB800E96EEA6A0101010EEA22040EEF6E1200C0
:102FC800060198C645F8060199C646F808010801A1
:102FD8003D5108014527080108013E5108014623D3
:102FE800140E0801452508010801436F000E080169
:102FF80046210801446FCE0E08010801435D0A0E00
:1030080008014459D8A00BEF18F00DEF18F014EF91
:1030180018F00801CE0E0801435F0A0E0801445B50
:103028007ACF41F87BCF42F843C87AFF44C87BFF88
:103038003FC8A0F840C8A1F833ECDFF0A0C843F8B7
:10304800A1C844F841C87AFF42C87BFF43C83DF88D
:1030580044C83EF830EF18F0120024C82EF825C8EE
:103068002FF822C82CF823C82DF8D6EC0DF008014B
:103078000801266F24C82EF825C82FF822C82CF876
:1030880023C82DF8D6EC0DF008010801276F0D0EA6
:1030980008010801266553EF18F055EF18F062EFA4
:1030A80018F00D0E0801080127655DEF18F05FEFB5
:1030B80018F062EF18F0000E7CEF18F00B0E080104
:1030C800080126616AEF18F06CEF18F079EF18F034
:1030D8000D0E08010801276574EF18F076EF18F057
:1030E80079EF18F0010E7CEF18F0020E7CEF18F063
:1030F80012003DC841F83EC842F887EF18F00801B1
:103108000801414B422B41C8E9FF42C8EAFFEF5092
:10311800D8A491EF18F093EF18F083EF18F095EF1B
:1031280018F0080108013F510801436F0801080120
:1031380040510801446F08013F4B402B43C8F6FF3C
:1031480044C8F7FF000EF86E080141C8E1FF080106
:1031580042C8E2FF08010801414B422B0E0EF764FA
:1031680003D00800F55005D0F6CFE9FFF7CFEAFF06
:10317800EF50E76EE750D8A4C4EF18F0C6EF18F088
:1031880093EF18F0C8EF18F012003DC83FF83EC89A
:1031980040F8D1EF18F0D1EF18F0080108013F51BD
:1031A8000801416F0801080140510801426F0801F8
:1031B8003F4B402B41C8F6FF42C8F7FF000EF86EA0
:1031C8000E0EF76403D00800F55005D0F6CFE9FFDE
:1031D800F7CFEAFFEF500009D8A4F5EF18F0F7EFA2
:1031E80018F0CFEF18F008013FC841F8080140C8AF
:1031F80042F8080108013D510801415F0801080132
:103208003E510801425BFF0E0801412508010801F3
:103218003D6FFF0E0801422108013E6F14EF19F0BF
:10322800120008014C0E080108014D6F0801080E34
:1032380008014E6F5EEC1DF00009D8A426EF19F0C6
:1032480028EF19F02AEF19F060EF19F008010801CA
:103258004C51C00BC00AD8A434EF19F036EF19F05E
:1032680043EF19F008014C0E080108014D6F0801E1
:10327800080E08014E6F5EEC1DF060EF19F00801B2
:1032880008014C674AEF19F04CEF19F04EEF19F0AE
:1032980060EF19F0080108014CC84FF8080108014F
:1032A800506B000E080108014D6F000E08014E6FAB
:1032B80089EC0FF015EF19F01200C4C8C6F8C5C89C
:1032C800C7F808010801C351C211D8B46EEF19F04C
:1032D80070EF19F091EF19F07FEF19F061CF7EFED2
:1032E800C2C8E9FFC3C8EAFF0E017ECEEFFF08019E
:1032F8000801C24BC32B08010801C607D8A0C7079D
:103308000801C629D8B4C729D8A48DEF19F08FEFC2
:1033180019F072EF19F0A5EF19F095EF19F061CFD8
:103328007EFE08010801C607D8A0C7070801C629FC
:10333800D8B4C729D8A4A3EF19F0A5EF19F093EFD3
:1033480019F0C4C8C2F8C5C8C3F8ABEF19F0120029
:10335800D7EC1EF00009D8A4B4EF19F0B6EF19F0B5
:10336800BFEF19F0000E080108014C6F000E0801AC
:103378004D6FF1EF19F007010701305108010801FD
:103388004C19D8B4CAEF19F0CCEF19F0DEEF19F0E8
:103398004CC830F7000E05010501FA6F000E050153
:1033A800FB6F000E080108014E6F000E08014F6FF9
:1033B800FFEC21F04CC8B0F605010501FA51C00830
:1033C800080108014C6F05010501FB51D8A0E82A46
:1033D800050808014D6FF1EF19F01200D28ED29E48
:1033E800080E08010801A06FFAEF19F0080108019A
:1033F800A0070801A029D8A404EF1AF006EF1AF0D4
:10340800FAEF19F06092060106018CB30EEF1AF07C
:1034180010EF1AF030EF1AF0060106018CB517EF1D
:103428001AF019EF1AF030EF1AF0C2EC21F0A1C827
:10343800B8F6A2C8B9F606018C85060106018CA764
:1034480028EF1AF02AEF1AF02DEF1AF08D822EEFDE
:103458001AF08D9206018C77D286F5EC22F0A1C87D
:10346800BCF6A2C8BDF612000801246F000E0801C0
:103478000801236F0801245167EF1AF01FC8E9FFFC
:1034880020C8EAFFEF5008010801286F23C827F871
:103498000801246FA00E08010801266F08012451B5
:1034A80055EC08F0080108011F4B202B0801246F78
:1034B800A00E08010801266F08012451B5EC0EF092
:1034C80008010801232B080123C824F80801256BEB
:1034D8000801080121510801245D08010801225151
:1034E80008012559D8A07BEF1AF07DEF1AF042EFBA
:1034F8001AF012004CC8B0F6070107013251080152
:1035080008014C19D8B48BEF1AF08DEF1AF096EF2A
:103518001AF0000E080108014C6F000E08014D6FEB
:10352800BDEF1AF006010601BEA19DEF1AF09FEF4C
:103538001AF0AAEF1AF00601BE91000E0801080160
:103548004E6F000E08014F6F13EC22F005010501C4
:10355800FE5106010601815D080108014C6F050155
:103568000501FF5106010601825908014D6FBDEFA3
:103578001AF012002CC8C9FFC6AEC5EF1AF0C7EF83
:103588001AF0CAEF1AF0FF0EFCEF1AF0CCEF1AF09F
:10359800C7B0D1EF1AF0D3EF1AF0CCEF1AF0D5EF8D
:1035A8001AF0C5CF2DF81F0E08012D172DC82EF8BB
:1035B80008012F6B000EC7B4010E08012E13000E70
:1035C8002F1308012F512E11D8A4EDEF1AF0EFEFA9
:1035D8001AF0D5EF1AF0C5ACF4EF1AF0F6EF1AF0BE
:1035E800F9EF1AF0FE0EFCEF1AF0000EFCEF1AF0DD
:1035F80012000801086F000E06010601DF6F0801BE
:1036080008510001988F70ECD4F016C830F817C82C
:1036180031F818C832F819C833F85BEC16F0BFEC6B
:10362800E4F0F6EC20F0AFEC1FF0EFECCAF0080184
:10363800086F000E080108011D6F080108510FEC02
:1036480015F00001000198BD2CEF1BF02EEF1BF0C8
:1036580038EF1BF00801086F000E08010801096F18
:1036680008010851ACEC21F0120008010E6F000EA1
:10367800080108010D6F08010E515EEF1BF00DC81F
:1036880011F808010E6FA00E08010801106F08015B
:103698000E519AECD7F008010801105109C8E9FF4A
:1036A8000AC8EAFFEF6E08010801094B0A2B080156
:1036B80008010D2B08010DC80EF808010F6B080151
:1036C80008010B5108010E5D080108010C510801A1
:1036D8000F59D8A072EF1BF074EF1BF043EF1BF0EB
:1036E80012000101B30E08010801336F0101010E38
:1036F8000801346F2DC831F82EC832F882ECBFF0BB
:103708000009D8B48AEF1BF08CEF1BF098EF1BF080
:103718000601AE830801306F070E07010701356FF8
:1037280008013051AFEF1BF0000E06010601AB6F28
:10373800000E0601AC6F2DC8C2F62EC8C3F60801EC
:10374800306F000E07010701356F080130512FC88F
:10375800DDF60601AE9312000101B30E080108015F
:10376800336F0101010E0801346F2DC831F82EC8DE
:1037780032F805ECC3F00009D8B4C5EF1BF0C7EF69
:103788001BF0D3EF1BF00601AE830801306F070E64
:1037980007010701356F08013051EAEF1BF02DC80A
:1037A800ABF62EC8ACF6000E06010601C26F000E7D
:1037B8000601C36F0801306F000E07010701356F5E
:1037C800080130512FC8DDF60601AE931200000E35
:1037D80008010801646F000E0801656F08010801FF
:1037E80060A1F9EF1BF0FBEF1BF007EF1CF00801DD
:1037F80008016251080108016427080108016351A2
:103808000801080165230801D890080162370801FA
:1038180063370801D8900801613308016033080153
:10382800080161516011D8A41CEF1CF01EEF1CF0B8
:10383800F2EF1BF064C860F865C861F824EF1CF06B
:103848001200060106018CA12CEF1CF02EEF1CF0D3
:1038580030EF1CF05AEF1CF006018C81FF0E0601B8
:103868000601A725080108014C6FFF0E0601060195
:10387800A82108014D6FCE0E080108014C5D0A0E03
:1038880008014D59D8A04BEF1CF04DEF1CF054EF38
:103898001CF0CD0E080108014C6F0A0E08014D6F8F
:1038A8000E01FE8D4CC8ECFE4DC8EDFE120006015F
:1038B80098C67FF8060199C680F8080108017B516F
:1038C80008017F27080108017C5108018023140E94
:1038D80008017F25080108017D6F000E080180217D
:1038E80008017E6FCE0E080108017D5D0A0E0801F1
:1038F8007E59D8A082EF1CF084EF1CF08BEF1CF0EF
:103908000801CE0E08017D5F0A0E08017E5B7DC8A6
:103918007AFF7EC87BFF120035C8E9FF36C8EAFF88
:10392800D890EF3635C8E9FF36C8EAFFEF50D8A47B
:10393800A0EF1CF0A2EF1CF0C4EF1CF035C8E9FFA3
:1039480036C8EAFF010EEF6E33C8E9FF34C8EAFF54
:10395800EE50ED10D8A4B3EF1CF0B5EF1CF0BDEF9E
:103968001CF033C8E9FF34C8EAFF000EEE6E020E01
:10397800ED6E33C8E9FF34C8EAFFEE06000EED5AD3
:10398800120006010601B367CCEF1CF0CEEF1CF065
:10399800EBEF1CF0008206010601B467D6EF1CF0BD
:1039A800D8EF1CF0DAEF1CF0F8EF1CF0B4C6B3F651
:1039B800000E06010601B46F00B4E5EF1CF0E7EF56
:1039C8001CF0EAEF1CF08978EBEF1CF0009406017C
:1039D8000601B351D8B4F3EF1CF0F5EF1CF0F8EF83
:1039E8001CF006010601B30712009E92CB68CA823A
:1039F800CA9CCA8ACA88CA869F929D82CA84000EB7
:103A0800BD6E000EBA6EBA86BA84BA9EBA9CBD86DE
:103A1800BD84BD9EBD9CBD86BD84BA86BA84BD9A50
:103A2800BD98BA9ABA98000EBE6E000EBB6E080119
:103A3800086F000E07010701176F080108510801F8
:103A4800086F000E070107010E6F080108511200E8
:103A58000D0E080108012C6134EF1DF036EF1DF042
:103A680043EF1DF00D0E080108012D613EEF1DF01A
:103A780040EF1DF043EF1DF0000E5DEF1DF0180E36
:103A8800080108012C654BEF1DF04DEF1DF05AEFB2
:103A98001DF00D0E080108012D6155EF1DF057EFBF
:103AA8001DF05AEF1DF0010E5DEF1DF0020E5DEFE7
:103AB8001DF0120006010601815105010501FE5D98
:103AC80006010601825105010501FF59D8B06FEFC3
:103AD8001DF071EF1DF07EEF1DF007010701325157
:103AE80006010601B019D8B47CEF1DF07EEF1DF079
:103AF80081EF1DF0000E8FEF1DF06DEC23F04DC827
:103B0800E9FF4EC8EAFFEF6E05010501FE4BFF2BEA
:103B1800010E8FEF1DF01200C00E01010101F75DCB
:103B2800050E0101F859D8A09CEF1DF09EEF1DF07D
:103B3800A0EF1DF0C1EF1DF053C8C0F880EC23F0D2
:103B480001010101F74BF82B01010101F7510501B2
:103B58000501FA5D01010101F85105010501FB5953
:103B6800D8B0B9EF1DF0BBEF1DF0BFEF1DF0F7C1E6
:103B7800FAF5F8C1FBF5C1EF1DF0120008010801C4
:103B88004E514CC8E9FF4DC8EAFFEF62CEEF1DF079
:103B9800D0EF1DF0D6EF1DF04CC84CF84DC84DF8CD
:103BA800F1EF1DF008014CC8E9FF08014DC8EAFF14
:103BB800080108014C4B4D2BEF50D8A4E6EF1DF03F
:103BC800E8EF1DF0C2EF1DF0000E080108014C6F70
:103BD800000E08014D6FF1EF1DF0120008010801F9
:103BE800A55108010801A21B08010801A2510801FA
:103BF8000801A51B08010801A55108010801A21B1D
:103C080008010801A45108010801A31B08010801C3
:103C1800A35108010801A41B08010801A4510801C7
:103C28000801A31BA2C8A2F8A3C8A3F8A4C8A4F8B3
:103C3800A5C8A5F820EF1EF01200AEC8B4F8AFC8AA
:103C4800B5F8ACC8B2F8ADC8B3F83DEF1EF0B4C8CB
:103C5800E9FFB5C8EAFFB2C8E1FFB3C8E2FFEFCF9A
:103C6800E7FF08010801B44BB52B08010801B24B66
:103C7800B32B08010801B007D8A0B1070801B02983
:103C8800D8B4B129D8A44BEF1EF04DEF1EF02BEF9E
:103C98001EF04FEF1EF012008988050E0801566FBE
:103CA800300EE82E55EF1EF0562F55EF1EF089986E
:103CB800050E0801566F300EE82E60EF1EF0562FE5
:103CC80060EF1EF08988050E0801566F300EE82E49
:103CD8006BEF1EF0562F6BEF1EF08998150E08013A
:103CE800566F6C0EE82E76EF1EF0562F76EF1EF00C
:103CF8001200C80E080108013325E96E020E0801FA
:103D080008013421EA6EEF5008010801366F0801F6
:103D180008013651080135C837F80801386B37BF34
:103D2800380708013717000E3817080138513711BE
:103D3800D8B4A1EF1EF0A3EF1EF0A6EF1EF0D880B6
:103D4800A9EF1EF0D890A9EF1EF012008988050E81
:103D58000801566F300EE82EAFEF1EF0562FAFEF6A
:103D68001EF08998150E0801566F6C0EE82EBAEFF2
:103D78001EF0562FBAEF1EF08988050E0801566FFF
:103D8800300EE82EC5EF1EF0562FC5EF1EF08998AD
:103D9800050E0801566F300EE82ED0EF1EF0562F94
:103DA800D0EF1EF01200D2B6DCEF1EF0DEEF1EF0F0
:103DB800E1EF1EF0010E03EF1FF0F5EC22F0060113
:103DC8000601BC5108010801A15F06010601BD51A9
:103DD80008010801A25B7A0E08010801A15D000E26
:103DE8000801A259D8A0FBEF1EF0FDEF1EF000EF6E
:103DF8001FF0D296F2EC19F0000E03EF1FF012003C
:103E080008013D3B0F0E3D17300E080108013D2506
:103E1800080108013E6F08013F6B000E08013F23AF
:103E2800090E080108013D651CEF1FF01EEF1FF089
:103E38002AEF1FF0370E080108013D250801080187
:103E48003E6F08013F6B000E08013F23080108017F
:103E58003E512FEF1FF012000F0E080108014917FD
:103E6800300E080108014925080108014A6F0801B8
:103E78004B6B000E08014B23090E08010801496528
:103E880048EF1FF04AEF1FF056EF1FF0370E0801FA
:103E980008014925080108014A6F08014B6B000E0B
:103EA80008014B23080108014A515BEF1FF012007B
:103EB800C80E080108015D6F000E08015E6F000E54
:103EC800080108015B6F000E08015C6F0201000E1B
:103ED80008010801596F0201020E08015A6F6EECC1
:103EE80020F008012C6F000E01010101FF6F08018D
:103EF8002C5108012C6F000E06010601E06F080125
:103F08002C511200000E080108014E6F000E080126
:103F18004F6F0201000E080108014C6F0201020EEA
:103F280008014D6FC2EC1DF04CC84AF84DC84BF85B
:103F3800080108014B514A11D8B4A5EF1FF0A7EFAB
:103F48001FF0AEEF1FF04AC8E9FF4BC8EAFF0801AF
:103F580049C8EFFF120008010A6F000E08010801A6
:103F6800096F08010A51040E080108010965BFEF2D
:103F78001FF0C1EF1FF0C3EF1FF0D4EF1FF009C807
:103F88004CF897EC17F008010801092B040E0801FA
:103F980008010965D2EF1FF0D4EF1FF0C3EF1FF03F
:103FA8000601BE8312000801116F000E060106010A
:103FB800DC6F080111510801116F000E060106019E
:103FC800B66F08011151000E05010501FC6F000EC6
:103FD8000501FD6F0801116F000E06010601B76F9C
:103FE800080111510801116F000E06010601B56F95
:103FF8000801115112000801116F000E0601060197
:10400800D56F080111510801116F000E0601060154
:10401800B26F080111510801116F000E0601060167
:10402800D16F080111510801116F000E0601060138
:10403800CE6F0801115107010701296907012A6993
:10404800120039EF20F0080159C8F6FF08015AC8D4
:10405800F7FF000EF86E08000E01F5CF7EFE08018E
:104068000801594B5A2B7ECE61FF080108015B07F6
:10407800D8A05C0708015B29D8B45C29D8A447EF0D
:1040880020F049EF20F027EF20F0120037C8B4FEE7
:1040980000F0010E0E010E01B26F00F054EF20F097
:1040A8000E010E018AB15BEF20F05DEF20F054EFB6
:1040B80020F0000E0E010E01B26F00F0B8CE39F8F4
:1040C80000F0B9CE3AF839C837F83AC838F86DEF81
:1040D80020F0120059C85FF85AC860F87FEF20F046
:1040E8005FC8E9FF60C8EAFF08015BC8EFFF080185
:1040F80008015F4B602B080108015D07D8A05E0727
:1041080008015D29D8B45E29D8A48DEF20F08FEF7F
:1041180020F074EF20F091EF20F012000AC8B4FEEE
:104128000BC87EFE0CC87FFEF250C00B08010801C8
:104138000D6F3F0EF2167ECEB6FE00F07FCEB7FEB4
:10414800080108010D51F212AAEF20F00E010E012C
:104158008AB1B1EF20F0B3EF20F0AAEF20F01200FF
:10416800C4EF20F0C0C8E9FFC1C8EAFFEF500E0154
:104178000E017E6F08010801C04BC12B7ECE61FF86
:1041880008010801C207D8A0C3070801C229D8B48A
:10419800C329D8A4D2EF20F0D4EF20F0B6EF20F056
:1041A8001200070107013129D8B4DDEF20F0DFEF55
:1041B80020F0E6EF20F031C74CF897EC17F0070134
:1041C800070131690801306F070E07010701356FD4
:1041D800080130510601AE910601AE31010BF5EF31
:1041E80020F0120001010101DD6901010101DE6910
:1041F80001010101DF6901010101E069010101011A
:10420800E16901010101E269000E01010101D96FB3
:10421800000E0101DA6F000E0101DB6F000E0101D3
:10422800DC6F12000201000E01010101FF25E96E99
:10423800EA6A0201020EEA22EF50680AD8B427EFB0
:1042480021F029EF21F02CEF21F0000E35EF21F0BD
:1042580001010101FF2906010601CB6F010E35EFAF
:1042680021F01200F28A00F0F29AD6CFEDF1D7CF02
:10427800EEF19FC6EFF1A0C6F0F1A1C6F1F1A2C61A
:10428800F2F1F2B44AEF21F04CEF21F036EF21F0D1
:10429800F28A1200F28A00F0F29AD6CFEDF1D7CF67
:1042A800EEF19FC6EFF1A0C6F0F1A1C6F1F1A2C6EA
:1042B800F2F1F2B462EF21F064EF21F04EEF21F059
:1042C800F28A12000201000E01010101FF25E96EC8
:1042D800EA6A0201020EEA22EF50690AD8B477EFBF
:1042E80021F07AEF21F0010E7BEF21F0000E7DEF37
:1042F80021F0120006010601BEB385EF21F087EF19
:1043080021F095EF21F025EC1CF0000E06010601C6
:10431800816F000E0601826F0701070132690601ED
:10432800BE831200F2A49BEF21F09DEF21F0ABEFCA
:1043380021F0010E060106019F27000E0601A023A9
:10434800000E0601A123000E0601A223F29412001A
:104358004428D8B4B2EF21F0B4EF21F0B9EF21F03E
:1043680044C04CF897EC17F0446808010A6F000E37
:1043780000010001456F08010A5112004EEC21F0BE
:10438800EEC1A5F8EFC1A6F8F0C1A7F8F1C1A8F8E9
:10439800A5C8A1F8A6C8A2F8A7C8A3F8A8C8A4F8F1
:1043A800D6EF21F012000801226F010E0801080162
:1043B800376F080122514AEC20F0370EE96E080EDB
:1043C800EA6EEF30E832010BEAEF21F0120000014B
:1043D80000014567F2EF21F0F4EF21F0FEEF21F044
:1043E8000801356F010E00010001456F08013551C4
:1043F800000146911200F90E080108014E25080136
:104408000801AC6F0A0E080108014F210801AD6FC1
:1044180030EC23F04EC8F7F14FC8F8F11200080E3F
:10442800080108014E2508010801796F000E0801EE
:1044380008014F2108017A6F5FEC22F04EC8FEF5A3
:104448004FC8FFF512000AC83DF80BC83EF8C9EC82
:1044580018F03DC855F83EC856F80AC853F80BC8B6
:1044680054F8A6ECE7F039EF22F012000AC83DF83C
:104478000BC83EF8C9EC18F03DC855F83EC856F8C8
:104488000AC853F80BC854F8F8EC12F04CEF22F0B5
:10449800120006010601AEA154EF22F056EF22F0F9
:1044A80059EF22F0000E5EEF22F00601AE81010EF8
:1044B8005EEF22F0120006010601A651080108016C
:1044C8007925080108017B6F000E080108017A218F
:1044D80008017C6F5BEC1CF01200BCC8BFF8BDC8BB
:1044E800C0F8C0C8BEF8BFC8C0F8BEC8BFF8BFC8CB
:1044F800BCF8C0C8BDF881EF22F0120032C838F805
:1045080033C839F8F9EC16F034C838F835C839F832
:1045180036C83AF837C83BF80DECE0F0120094863C
:1045280094883F0EC716000EC66E000EC56EC6866E
:10453800C78E82868288C68A430EC86E12002EC82D
:1045480034F82FC835F830C836F831C837F82CC8D1
:1045580032F82DC833F882EC22F012007692769069
:10456800769C769A768876967684A4967768A386DB
:1045780097949388A58612005CEC1FF07B0E0801C7
:104588000801346FFF0E0801356F48EC17F046EC50
:1045980023F0120026C82BF824C829F825C82AF8C1
:1045A80022C827F823C828F8FFECE3F0120036ECFD
:1045B80021F0EDC1DDF8EEC1DEF8EFC1DFF8F0C1A2
:1045C800E0F8E7EF22F0120030C838F831C839F8BF
:1045D800F9EC16F032C834F833C835F848EC17F05F
:1045E80012004EEC21F0EDC1A1F8EEC1A2F8EFC126
:1045F800A3F8F0C1A4F801EF23F012000201000EA5
:1046080008010801366F0201020E0801376F0DEF2D
:1046180023F01200D2AA13EF23F016EF23F0010EB5
:1046280017EF23F0000E19EF23F012002EC832F80E
:104638002FC833F82CC830F82DC831F8E8EC22F030
:10464800120008012D6F730E08010801496F080157
:104658002D5186EC1FF01200E2CEAEF8E3CEAFF893
:10466800ACC8E2FEADC8E3FE3AEF23F012007ACF01
:10467800AEF87BCFAFF8ACC87AFFADC87BFF45EF8B
:1046880023F0120008012C6F680E08010801496F19
:1046980008012C5186EC1FF01200000ED76E000E98
:1046A800D66EF194F294F28A870ED56E1200979224
:1046B80092988998B19AB198A082A282B19012007A
:1046C80025EC23F078EC05F02CC82DF899EC23F0B4
:1046D800120061CF7EFE0E010E017E5174EF23F0B1
:1046E800120000014651010B7AEF23F012008DEC05
:1046F80023F0B19076841200C0C87EFE7ECE61FFA2
:104708001200769496EC23F01200D08EF28EF28C82
:1047180012008E928E8412004FC817F7120090EC88
:10472800DAF012008E828E9412002DC80EF7120055
:04473800D18012001A
:10FEFC0000005E01E80367000073656C666C656169
:10FF0C00726E696E6776320054656C6C53746963FB
:10FF1C006B4E65743A0065766572666C6F757269C6
:10FF2C0073680073656C666C6561726E696E6700F0
:10FF3C007265676C697374656E657200646973636E
:10FF4C006F6E6E6563740066696E656F6666736569
:10FF5C007400636F6465737769746368006D616EB8
:10FF6C00646F6C796E0070726F746F636F6C00529B
:10FF7C006177446174610067617465776179006EC3
:10FF8C0065746D61736B0061726374656368006F97
:10FF9C007265676F6E00736176656970006D65746C
:10FFAC00686F640073656E736F72006D6F64656C5F
:10FFBC0000686F75736500736574697000686173B0
:10FFCC00746100636C617373006461746100756EBD
:10FFDC00697400646E733100646E73320073656E05
:10FFEC0064007831300032383A005000520053002F
:04FFFC0058000000A9
:020000040001F9
:1000000074656D706572617475726568756D69642B
:100010006974790000000100000000000000000188
:100020000000000000009E9FFE4101000000FFFF55
:10003000F3FFFFFFFF80FFFFFEFFFFFFFEFF070054
:100040000D0E080108014A25E96E000E080108019D
:100050004B21EA6EEF50080108014F6F080E0801AE
:1000600008014A25E96E000E080108014B21EA6EDD
:100070000801EECF66F80801EECF67F80801EECF71
:1000800068F80801EECF69F8040E080108014A2556
:10009000E96E000E080108014B21EA6E0801EECF5F
:1000A0005AF80801EECF5BF80801EECF5CF80801C2
:1000B000EECF5DF81890189218940B000E0018B847
:1000C00064EF80F066EF80F07CEF80F0F5EC22F0DA
:1000D000740E08010801A1250F6E350E08010801F4
:1000E000A221106E060E08010801A321116E000E58
:1000F00008010801A421126ED4EF81F00801080163
:100100004FA585EF80F087EF80F08BEF80F060ECFB
:1001100014F0CDEF8DF0080108014FA992EF80F0A7
:1001200094EF80F0B2EF80F066C821F067C822F04B
:1001300068C823F069C824F008016A6F000E08013E
:100140000801736F08016A5108016B6F040E080102
:100150000801726F08016B5179EC9BF060EC14F0B0
:10016000CDEF8DF0080108014FA3B9EF80F0BBEF90
:1001700080F0EFEF80F0010E080108015A25256E8E
:10018000000E080108015B21266E000E080108011F
:100190005C21276E000E080108015D21286E88ECA5
:1001A000D5F072C840F073C841F008016A6F010EC3
:1001B00008010801736F08016A5108016B6F120E84
:1001C00008010801726F08016B5179EC9BF008017E
:1001D0006A6F060E176E08016A51F1EF80F060EC4D
:1001E00014F0CDEF8DF0080108014FA5FAEF80F073
:1001F000FCEF80F0FEEF80F0CDEF8DF008010801FC
:100200004FA905EF81F007EF81F04DEF81F0080174
:100210000801695124180EE10801080168512318EA
:1002200009E1080108016751221804E108010801E9
:1002300066512118D8B41FEF81F021EF81F04DEF06
:1002400081F021C05AF822C05BF823C05CF824C0BA
:100250005DF866C821F067C822F068C823F069C855
:1002600024F008016A6F010E08010801736F08018C
:100270006A5108016B6F040E08010801726F0801D2
:100280006B5179EC9BF05AC821F05BC822F05CC836
:1002900023F05DC824F0CDEF8DF0080108014FA3D5
:1002A00054EF81F056EF81F0D0EF81F0010E08019C
:1002B00008015A25256E000E080108015B21266EF3
:1002C000000E080108015C21276E000E08010801DC
:1002D0005D21286E0E0E080108014A25E96E000E08
:1002E000080108014B21EA6EEECF2FF0EDCF30F080
:1002F00088ECD5F072C840F073C841F008010801DD
:100300004FA985EF81F087EF81F0B8EF81F0080108
:100310006A6F010E08010801736F08016A51080134
:100320006B6F100E08010801726F08016B5179ECB8
:100330009BF008016A6F070E176E08016A51F5EC11
:1003400022F0740E08010801A1250F6E350E080178
:100350000801A221106E060E08010801A321116EEA
:10036000000E08010801A421126E1898D0EF81F048
:1003700008016A6F010E08010801736F08016A51D4
:1003800008016B6F120E08010801726F08016B51B2
:1003900079EC9BF008016A6F060E176E08016A512E
:1003A000CDEF8DF0DDEF81F01750040A01E1A6D604
:1003B000010A01E118D7D2EF81F04CC854F84DC8BA
:1003C00055F8080108014FA1E8EF81F0EAEF81F04C
:1003D000EEEF81F008010801544B552B080108018C
:1003E0004FA3F5EF81F0F7EF81F0FBEF81F008010B
:1003F0000801544B552B00EE0DF010EE0BF0E652B9
:10040000EE52ED50E55C02E1EF50E75CD8A00BEF57
:1004100082F00DEF82F034EF82F000EE0BF0EECFC1
:100420006AF8EDCF6BF80D5008016A5F0E500801B5
:100430006B5B00EE05F0EECF6CF8EDCF6DF803507E
:1004400008016C5F045008016D5B08016A510801E6
:100450006C5D08010801526F08016B5108016D596C
:100460000801536F4BEF82F000EE0DF0EECF6AF80B
:10047000EDCF6BF80B5008016A5F0C5008016B5B05
:10048000FF0E08016A2508010801526FFF0E0801DE
:100490006B210801536F2550080108015A5D0801BE
:1004A0000801626F2650080108015B590801636F5B
:1004B0002750080108015C590801646F28500801A1
:1004C00008015D590801656F62C856F863C857F89E
:1004D00008016A6F000E080108014E6F08016A5199
:1004E0000801080155515411D8B479EF82F07BEF1F
:1004F00082F08BEF83F00801080153515211D8B4F8
:1005000084EF82F086EF82F089EF83F00801080122
:1005100065BF8DEF82F08FEF82F0C2EF82F00801AD
:100520000801525108016A6F08010801535108017E
:100530006B6F08016C6B08016D6B08016A51080153
:100540000801625D08016B51080108016359080147
:100550006C5108010801645908016D510801080136
:100560006559D8B0B6EF82F0B8EF82F0C2EF82F0F2
:1005700008016A6F010E080108014E6F08016A51F7
:1005800034EF83F008010801545108010801622585
:1005900008016A6F0801080155510801080163212B
:1005A00008016B6F000E08010801642108016C6FDF
:1005B000000E08010801652108016D6F08016D51E9
:1005C000800A800F08E1000E6C5D05E1000E6B5D96
:1005D00002E1010E6A5DD8A0F0EF82F0F2EF82F046
:1005E00034EF83F008010801545108010801525DFD
:1005F00008016A6F080108015551080108015359A3
:1006000008016B6F08016C6B08016BBF6C07080178
:100610006C5108016D6F08016D51800A08016E6F01
:1006200008010801625108016A5D0801080163516F
:1006300008016B5908010801645108016C5908014F
:1006400008016551800A08016E59D8A02AEF83F08D
:100650002CEF83F034EF83F008016A6F010E08017C
:1006600008014E6F08016A51080108015251080142
:100670006A6F08010801535108016B6F08016C6B28
:1006800008016D6B080108016551800A08016E6F51
:1006900008016A5108010801625D08016B510801F7
:1006A0000801635908016C510801080164590801E7
:1006B0006D51800A08016E59D8B061EF83F063EF85
:1006C00083F089EF83F0080156C86AF8080157C81B
:1006D0006BF808010801545108016A270801080154
:1006E000555108016B2308016B51800A800F010EE0
:1006F000D8B46A5DD8A07FEF83F081EF83F089EFF3
:1007000083F008016A6F010E080108014E6F0801AD
:100710006A51DBEF83F008016551621163116411C6
:10072000D8A495EF83F097EF83F0A1EF83F0080151
:100730006A6F010E080108014E6F08016A51DBEF74
:1007400083F00801080165BFA8EF83F0AAEF83F0EA
:10075000DBEF83F008010801525108016A6F0801BC
:100760000801535108016B6F08016C6B08016D6B38
:1007700008016A5108010801625D08016B51080116
:100780000801635908016C51080108016459080106
:100790006D51080108016559D8B0D1EF83F0D3EF4E
:1007A00083F0DBEF83F008016A6F010E0801080196
:1007B0004E6F08016A51080108014E67E2EF83F0AD
:1007C000E4EF83F001EF84F0080108014FB5EBEF8F
:1007D00083F0EDEF83F0FFEF83F008016A6F010E05
:1007E00008010801736F08016A5108016B6F100E50
:1007F00008010801726F08016B5179EC9BF0CDEF95
:100800008DF0080108014F51060BD8B40AEF84F0AF
:100810000CEF84F010EF84F060EC14F0CDEF8DF06D
:10082000080108014FB917EF84F019EF84F01BEFAE
:1008300084F0CDEF8DF044EF88F008010801695194
:1008400024180EE1080108016851231809E1080184
:1008500008016751221804E10801080166512118B6
:10086000D8B435EF84F037EF84F063EF84F021C023
:100870005AF822C05BF823C05CF824C05DF866C853
:1008800021F067C822F068C823F069C824F0080185
:100890006A6F010E08010801736F08016A510801AF
:1008A0006B6F040E08010801726F08016B5179EC3F
:1008B0009BF05AC821F05BC822F05CC823F05DC8E9
:1008C00024F0CDEF8DF008016A6F070E176E080156
:1008D0006A512950075C08010801586F2A500858CE
:1008E0000801596F0801080159AF79EF84F07BEFD7
:1008F00084F091EF84F000EE03F0EECF6AF8EDCFD4
:100900006BF8015008016A5F025008016B5B080137
:100910006A5108010801582708016B5108010801B4
:1009200059230801080158512124080108015E6F6C
:10093000080108015951222008015F6F000E232091
:100940000801606F000E24200801616F0801080192
:100950006651080108015E5D08016A6F080108011F
:100960006751080108015F5908016B6F0801080110
:10097000685108010801605908016C6F08010801FD
:10098000695108010801615908016D6F08016DAFD7
:10099000CCEF84F0CEEF84F0E2EF84F008016A6FD0
:1009A000000E08010801736F08016A5108016B6F9E
:1009B000100E08010801726F08016B5179EC9BF071
:1009C000CDEF8DF00950295C08016A6F0A502A5852
:1009D00008016B6F08016C6B08016BBF6C070801A5
:1009E0006C5108016D6F08016A51215C0801080112
:1009F0005E6F08016B51225808015F6F08016C514E
:100A000023580801606F08016D5124580801616F77
:100A100000EE09F010EE29F0E652EE52ED50E55CE2
:100A200002E1EF50E75CD8B018EF85F01AEF85F0DF
:100A30003AEF85F00150035C08016A6F02500458D8
:100A400008016B6F08016C6B08016D6B08016A513E
:100A5000080108015E5F08016B51080108015F5B36
:100A600008016C5108010801605B08016D51080123
:100A70000801615B080108015E5108010801665D1B
:100A8000080108015E6F080108015F5108010801B3
:100A9000675908015F6F08010801605108010801EA
:100AA00068590801606F08010801615108010801D7
:100AB00069590801616F080108016151800A800FBE
:100AC0000BE1000E0801605D07E1000E08015F5DAB
:100AD00003E1010E08015E5DD8A071EF85F073EFB0
:100AE00085F074EF86F00150035C08016A6F0250D4
:100AF000045808016B6F08016C6B08016D6B0801ED
:100B000008015E5108016A5D080108015F51080192
:100B10006B5908010801605108016C59080108016E
:100B2000615108016D59D8A098EF85F09AEF85F0D2
:100B300074EF86F03F963F98199009C058F80AC0A4
:100B400059F8080108015E510926080108015F51A2
:100B50000A22080108015851295C0801080159516D
:100B60002A58D8A0B6EF85F0B8EF85F0E6EF85F00B
:100B700000EE09F010EE29F0E652EE52ED50E55C81
:100B800002E1EF50E75CD8B0C8EF85F0CAEF85F01E
:100B9000E4EF85F000EE09F0EECF6AF8EDCF6BF8E8
:100BA000295008016A5F2A5008016B5B08016A51ED
:100BB000212608016B512222000E2322000E24223E
:100BC00009C029F00AC02AF02AEF86F000EE03F0EF
:100BD000EECF6AF8EDCF6BF8015008016A5F025062
:100BE00008016B5B295008016A2508010801586F4C
:100BF0002A5008016B210801596F095008010801AA
:100C0000585D0A50080108015959D8B00AEF86F01A
:100C10000CEF86F02AEF86F000EE09F0EECF6AF8CE
:100C2000EDCF6BF808010801585108016A5F08010F
:100C30000801595108016B5B08016A51212608011E
:100C40006B512222000E2322000E242209C029F01B
:100C50000AC02AF000EE03F010EE09F0E652EE5260
:100C6000ED50E55C02E1EF50E75CD8A03AEF86F08A
:100C70003CEF86F04EEF86F000EE03F0EECF6AF820
:100C8000EDCF6BF8015008016A5F025008016B5B01
:100C900008016A51095E08016B510A5A00EE03F01F
:100CA00010EE29F0E652EE52ED50E55C02E1EF5015
:100CB000E75CD8A05EEF86F060EF86F072EF86F01A
:100CC00000EE03F0EECF6AF8EDCF6BF801500801AB
:100CD0006A5F025008016B5B08016A51295E0801D6
:100CE0006B512A5AE8EF86F000EE29F010EE09F079
:100CF000E652EE52ED50E518EFCFE8FFD8B4E71812
:100D0000D8B485EF86F087EF86F0E8EF86F03FA64F
:100D10008CEF86F08EEF86F0E7EF86F03FA893EF3A
:100D200086F095EF86F0E6EF86F00950295C080121
:100D30006A6F0A502A5808016B6F08016C6B080132
:100D40006BBF6C0708016C5108016D6F08016A5197
:100D5000215E08016B51225A08016C51235A080187
:100D60006D51245A00EE09F010EE29F0E652EE52D1
:100D7000ED50E55C02E1EF50E75CD8B0C2EF86F0E1
:100D8000C4EF86F0E1EF86F00150035C08016A6F62
:100D90000250045808016B6F08016C6B08016BBFAF
:100DA0006C0708016C5108016D6F08016A51215EE2
:100DB00008016B51225A08016C51235A08016D51E8
:100DC000245A09C029F00AC02AF019843F883F86B6
:100DD00000EE07F010EE09F0E652EE52ED50E51885
:100DE000EFCFE8FFD8B4E718D8A4F9EF86F0FBEF0F
:100DF00086F03EEF87F019B600EF87F002EF87F03C
:100E00001BEF87F0F5EC22F0740E08010801A12514
:100E10000F6E350E08010801A221106E060E0801A2
:100E20000801A321116E000E08010801A421126E11
:100E300018983EEF87F008010801695124180EE167
:100E4000080108016851231809E1080108016751E8
:100E5000221804E10801080166512118D8A433EFD3
:100E600087F035EF87F03EEF87F03FA03AEF87F04D
:100E70003CEF87F03EEF87F01898199600EE21F0CE
:100E8000EECF6AF8EDCF6BF8080108016651080152
:100E90006A5F08010801675108016B5B0E0E0801CB
:100EA00008014A25E96E000E080108014B21EA6E8F
:100EB000EECF6CF8EDCF6DF808016A5108016C5D5A
:100EC00008010801506F08016B5108016D590801B4
:100ED000516F30502F10D8A470EF87F072EF87F069
:100EE0007EEF87F00801080151515011D8B47BEF13
:100EF00087F07DEF87F07EEF87F0198250C82FF0E2
:100F000051C830F01750080AD8A489EF87F08BEF4A
:100F100087F0CBEF87F008010801695124180EE132
:100F2000080108016851231809E108010801675107
:100F3000221804E10801080166512118D8A4A3EF82
:100F400087F0A5EF87F0C9EF87F03FA0AAEF87F001
:100F5000ACEF87F0C9EF87F0F5EC22F0BA0E08018C
:100F60000801A1250F6E1A0E08010801A221106EBA
:100F7000030E08010801A321116E000E08010801EB
:100F8000A421126E188808016A6F090E176E0801F5
:100F90006A5124EF88F01750090AD8A4D2EF87F0DD
:100FA000D4EF87F0FDEF87F0080108014FB1DBEFC8
:100FB00087F0DDEF87F0FBEF87F066C821F067C8A8
:100FC00022F068C823F069C824F008016A6F000E97
:100FD00008010801736F08016A5108016B6F140E54
:100FE00008010801726F08016B5179EC9BF060EC0D
:100FF00014F0CDEF8DF024EF88F017500A0AD8A432
:1010000004EF88F006EF88F024EF88F0080108016B
:10101000695124180EE1080108016851231809E1FB
:10102000080108016751221804E10801080166510E
:101030002118D8A41EEF88F020EF88F022EF88F066
:1010400060EC14F0CDEF8DF05CEF88F00801080142
:10105000695124180EE1080108016851231809E1BB
:10106000080108016751221804E1080108016651CE
:101070002118D8A43EEF88F040EF88F042EF88F0C6
:1010800060EC14F0CDEF8DF01750060A02E11DEF71
:1010900084F0010A01E11DD40F0A01E11AD4010A0A
:1010A00001E117D4030A01E114D4010A01E111D4CA
:1010B000070ACCE024EF88F0080108014FAB63EF8A
:1010C00088F065EF88F067EF88F0CDEF8DF017506E
:1010D0000B0AD8A46EEF88F070EF88F072EF88F0FA
:1010E000CDEF8DF017500A0AD8A479EF88F07BEF86
:1010F00088F07DEF88F0CDEF8DF017500C0AD8A462
:1011000084EF88F086EF88F088EF88F0CDEF8DF0DF
:10111000080108014D514C11D8B491EF88F093EFBC
:1011200088F091EF8CF0080108015751800A800F78
:10113000010ED8B4565DD8B0A0EF88F0A2EF88F0C9
:1011400029EF8AF00C0E080108014A25E96E000E0D
:10115000080108014B21EA6EEF380F0B08016A6F96
:101160006AC86BF808016C6BD89008016B376C3754
:10117000D89008016B376C370801080156510801F7
:101180006B5D08010801796F0801080157510801DA
:101190006C5908017A6F5FEC22F008010801565182
:1011A000080108014C2708010801575108010801EE
:1011B0004D23080108014C5108010801525D080146
:1011C00008014D51080108015359D8B0EAEF88F0E1
:1011D000ECEF88F0F0EF88F052C84CF853C84DF8A7
:1011E000080108014C512526080108014D5126220D
:1011F000000E2722000E282200EE0BF0EECF6AF838
:10120000EDCF6BF8080108014C5108016A2708016D
:1012100008014D5108016B2308016A51055C080162
:101220006B510658D8B017EF89F019EF89F08DEFA0
:1012300089F000EE05F0EECF6AF8EDCF6BF80B50B9
:1012400008016A5F0C5008016B5B010E08016A25FA
:1012500008010801586F000E08016B210801596F41
:1012600058C8AAF859C8ABF808016A6F000E0801FF
:101270000801A96F08016A51FF0E08010801A76F54
:10128000FF0E0801A86F1CC0A6F80BC0A4F80CC084
